:020000020000FC
:020000004FC0EF
:1000A0000FEF0AB90BB904B905B908B9002707B9A8
:1000B00000E0002E00E0102E00E0202E00E0302EA8
:1000C00062E073E05FEF0C94F40099278827839532
:1000D0008F3F19F0903219F0FACF9395FBCF089526
:1000E0002A98002D0E948D000E9465002A9A2B9864
:1000F000012D0E948D000E9465002B9A2C98022DE4
:100100000E948D000E9465002C9A2D98032D0E945C
:100110008D000E9465002D9A08950BB9037015B1EA
:100120001C7F100F15B908950BEF0022102220221A
:10013000302204E060FD07C061FD0CC062FD11C00B
:1001400063FD16C00895F3E0E72FEE0FFF1F049044
:10015000002A0895F3E0E72FEE0FFF1F1490102AF6
:100160000895F3E0E72FEE0FFF1F2490202A089553
:10017000F3E0E72FEE0FFF1F3490302A08953099F7
:100180000E94D40031990E94DD0032990E94E4005F
:1001900033990E94ED00309B5160319B5260329B3D
:1001A0005460339B5860089550FF089567955E7FB3
:1001B000603009F0089561E0089551FF0895661FC9
:1001C0005D7F64FD68E0089552FF089573955B7F3D
:1001D0007A3009F0089579E0089553FF08957A95EB
:1001E000577F77FD70E008950E9494000E94700090
:0801F0000E94BF00F9CFFFCF10
:10060000EB002800B300BA007800DA00DB00A80095
:04061000FB00FA00F1
:00000001FF
